:020000040800F2
:10000000285900205D020008D1420008313600085E
:10001000CD42000833050008A54C00080000000090
:100020000000000000000000000000009D0100082A
:100030005308000800000000F90100085D430008B3
:1000400077020008770200087702000877020008AC
:10005000770200087702000877020008770200089C
:10006000770200087702000877020008770200088C
:10007000E906000877020008F90600087702000880
:10008000770200087702000877020008770200086C
:100090009905000877020008770200087702000837
:1000A0007702000859440008770200087702000828
:1000B0007144000877020008770200087702000800
:1000C000770200087702000877020008770200082C
:1000D00077020008754C000877020008854C00087C
:1000E000770200087702000877020008770200080C
:1000F00077020008770200087702000877020008FC
:1001000077020008770200087702000877020008EB
:1001100077020008770200087702000877020008DB
:10012000770200080907000819070008770200088D
:1001300077020008770200087702000877020008BB
:100140000D06000877020008770200087702000811
:10015000770200082907000839070008954C0008B5
:10016000770200087702000877020008770200088B
:1001700077020008770200087702000800000000FC
:100180007702000877020008DFF80CD000F094F93D
:1001900000480047154E0008285900202C4B1968CC
:1001A0000868B0E8F04F80F30988BFF36F8F4FF015
:1001B000000080F3118870470000000008480068C4
:1001C000006880F308884FF0000080F3148862B65E
:1001D00061B6BFF34F8FBFF36F8F00DF00BF00BF6B
:1001E00008ED00E0DFF80C00016841F470010160E7
:1001F000704700BF88ED00E0EFF30980BFF36F8F19
:10020000134B1A681EF0100F08BF20ED108A20E96A
:10021000F04F106009B44FF0500080F31188BFF325
:100220004F8FBFF36F8F06F0F9F94FF0000080F3A6
:10023000118809BC19680868B0E8F04F1EF0100F6B
:1002400008BFB0EC108A80F30988BFF36F8F704746
:100250002C000020EFF3058070470000064880471F
:1002600006480047FEE7FEE7FEE7FEE7FEE7FEE79B
:10027000FEE7FEE7FEE7FEE74544000889010008C7
:100280002DE9F05F0546002092469B4688460646CB
:10029000814640241BE0284641464746224600F05E
:1002A0009EF853465A46C01A914110D3114618463B
:1002B000224600F085F82D1A67EB01084F462246CA
:1002C0000120002100F07CF817EB00094E41201EB0
:1002D000A4F10104DFDC484631462A464346BDE826
:1002E000F09F00000649074A0868504343F239026C
:1002F00010440860400870470149086070470000DA
:100300002C0100206D4EC64140EA01039B0703D03B
:1003100009E008C9121F08C0042AFAD203E011F844
:10032000013B00F8013B521EF9D27047D2B201E006
:1003300000F8012B491EFBD270470022F6E710B5EA
:1003400013460A4604461946FFF7F0FF204610BD43
:100350000EB540F2334102910021CDE900110A4669
:100360000B4600F05BF803B000BD00F0004230F037
:1003700000400AD0C10D01F56071C0F3160042EAD9
:100380000151C208400711437047002001467047E1
:1003900030B5041E71F1000404DB4FF0004440420C
:1003A00064EB0101141E73F1000405DB1C464FF0E1
:1003B0000043524263EB0403994208BF904230BDB0
:1003C000202A04DB203A00FA02F100207047914015
:1003D000C2F1200320FA03F3194390407047202A0A
:1003E00004DB203A21FA02F00021704721FA02F3DF
:1003F000D040C2F12002914008431946704710B521
:10040000141E73F1000408DA401C41F10001921837
:100410005B411A4301D120F0010010BD2DE9F04DE0
:1004200092469B4611B1B1FA81F202E0B0FA80F235
:1004300020329046FFF7C4FF04460F4640EA0A0008
:1004400041EA0B0153465A46084313D0114653EA7A
:10045000010019D0C8F140025046FFF7C0FF054621
:100460000E46504659464246FFF7AAFF084305D0BC
:10047000012004E020463946BDE8F08D0020054308
:1004800046EAE0762C4337430A986305E40AA0EB7A
:1004900008000022FD0A44EA47540A3002D5002031
:1004A0000146E9E7010510196941DDE90845001930
:1004B0006941BDE8F04DA2E7064C074D06E0E06853
:1004C00040F0010394E8070098471034AC42F6D39B
:1004D000FFF75EFED4740008F474000870B58C1841
:1004E00010F8015B15F0070301D110F8013B2A1148
:1004F00006D110F8012B03E010F8016B01F8016B35
:100500005B1EF9D12B0705D40023521E0DD401F830
:10051000013BFAE710F8013BCB1A921C03E013F8F9
:10052000015B01F8015B521EF9D5A142D8D300202E
:1005300070BD00BFFEE7000010B58AB00446002081
:10054000059006900120079047F6FE70009000206D
:1005500001900290039004900E20099001200890D1
:1005600069460C4800F03AFA08B100F073F90948FE
:1005700000F051FE08B100F06DF90221054800F0CD
:100580006CF908B100F066F90221024800F065F943
:100590000AB010BDD807002010B5024800F06EFB6D
:1005A00010BD0000D807002010B58AB004460E2008
:1005B000059000200690012007904FF6FF700090F4
:1005C0004010019000200290039004900E200990AA
:1005D0000120089069460C4800F000FA08B100F0CC
:1005E00039F9094800F017FE08B100F033F902218B
:1005F000054800F032F908B100F02CF90221024858
:1006000000F02BF90AB010BD0008002010B5024818
:1006100000F034FB10BD0000000800200A784B7881
:1006200042EA0322C2F30A0202800288A2F5806233
:1006300012B202804A78D2108B7842EA4312C2F397
:100640000A0242804288A2F5806212B242808A7811
:100650009211CB7842EA83020B7942EA8322C2F3F9
:100660000A0282808288A2F5806212B282800A79B0
:1006700052104B7942EAC312C2F30A02C280C28806
:10068000A2F5806212B2C2804A7912119208827277
:100690004A79C2F30112C2728A79CB7942EA032203
:1006A00012B282810A7A4B7A42EA032213B2C381E0
:1006B0008A7ACB7A42EA032213B203820B7B8374D9
:1006C0004B7BC3748A7BCB7B42EA032282820A7C07
:1006D0004B7C42EA0322C2F30A0202810289A2F59C
:1006E000806212B20281704710B5024800F034FEF9
:1006F00010BD00002C0B002010B5024800F02CFEAD
:1007000010BD00008C0B002010B5024800F024FE44
:1007100010BD0000EC0B002010B5024800F01CFEDC
:1007200010BD00006C0A002010B5024800F014FE55
:1007300010BD00004C0C002010B5024800F00CFE6B
:1007400010BD0000CC0A002001460878103818239C
:10075000B0FBF3F20848805CC865032A05D9086835
:100760006FF30900001D886503E008686FF3090056
:100770008865886D70470000847400080146002079
:100780008A6A8B69CBB932B1012A0DD0022A03D013
:10079000032A10D10EE000BFCB6A03F08073B3F1DF
:1007A000807F00D1012007E0CB6AB3F1C07F00D188
:1007B000012001E000E000BF34E08B69B3F5005F89
:1007C0001AD132B1012A07D0022A03D0032A11D14B
:1007D0000AE000BF01200EE0CB6A03F08073B3F1A2
:1007E000807F00D1012006E0CB6AB3F1C07F00D149
:1007F000012000E000BF15E032B1012A05D0022A35
:1008000004D0032A0CD103E000BF00BF012008E0A0
:10081000CB6A03F08073B3F1807F00D1012000E048
:1008200000BF00BF704730B50468246824F48024FA
:1008300005682C60046863608468402C04D10468F7
:10084000A2600468E16003E00468A1600468E260FB
:1008500030BD704772B600BFFEE710B5024692F891
:100860002030012B01D0022B06D1106840690843CB
:1008700014686061002010BD506A40F4802050620E
:100880000120F8E7F0B504460D461E4694F82070A6
:1008900020688368A86800B900E000BF012F01D07C
:1008A000022F7CD103F0806030B903F0006018B9EA
:1008B00003F08050002873D0C3F30161022905D9E9
:1008C000606A40F4000060620120F0BD01208840B1
:1008D0003060A86860B9B5F800C0E86840EA4C5CD0
:1008E000206800F5C07000EB0110C0F800C00FE0F8
:1008F000D5E901C040EACC00D5F80CC040EA0C00B4
:10090000D4F800C00CF5C07C0CEB011CCCF8000046
:10091000D5F810C0206800F5C07000EB0110C0F8D9
:1009200004C0287D01280ED1206800F5C07000EBBE
:100930000110406840F4807C206800F5C07000EB36
:100940000110C0F804C0D079000692F806C040EA51
:100950000C4092F805C040EA0C2C10794CEA000CCF
:10096000206800F5C07000EB0110C0F80CC0D07812
:10097000000692F802C040EA0C4092F801C040EA3A
:100980000C2092F800C040EA0C00D4F800C00CF52E
:10099000C07C0CEB011CCCF80800206801E016E0DC
:1009A0000FE000F5C07000EB0110006840F0010C92
:1009B000206800F5C07000EB0110C0F800C00020F6
:1009C00083E7606A40F40010606201207DE7606A9E
:1009D00040F480206062012077E70000F0B5044613
:1009E0000A46216894F82050012D01D0022D7ED1B5
:1009F000424901F50071086840F00100086008688C
:100A000020F47C5008600868566A40EA06200860B6
:100A1000107D00F01F06012000FA06F3C869984314
:100A2000C861A1F50071D069C8B9D1F80C0298432A
:100A3000C1F80C02908880B2968940EA064601F51A
:100A40001070576940F83760108880B2168940EA04
:100A5000064601F51070576900EBC7004660D06983
:100A6000012819D1D1F80C021843C1F80C02908862
:100A700080B2168840EA064601F51070576940F8C2
:100A80003760908980B2168940EA064601F51070F9
:100A9000576900EBC7004660906928B9D1F8040295
:100AA0009843C1F8040204E0D1F804021843C1F8E5
:100AB0000402106928B9D1F814029843C1F814024D
:100AC00004E0D1F814021843C1F81402106A012896
:100AD00004D1D1F81C021843C1F81C02D1F800025D
:100AE00020F00100C1F800020020F0BDFFE7606ABD
:100AF00040F4802060620120F7E7000000640040BD
:100B0000704770B5044694F82050012D01D0022D95
:100B10007DD151B92068C06800F0030080B9606AD7
:100B200040F400106062012070BD2068006900F090
:100B3000030028B9606A40F4001060620120F3E706
:100B4000206800F5D87000EB0110006800F0040088
:100B50009060906840B9206800F5D87000EB0110F3
:100B60000068400D106007E0206800F5D87000EBC9
:100B700001100068C0085060206800F5D87000EBD4
:100B80000110006800F00200D060206800F5D87005
:100B900000EB0110406800F00F001061206800F5C4
:100BA000D87000EB0110406800F47F40000A9061AB
:100BB000206800F5D87000EB01104068000C50610F
:100BC000206800F5D87000EB01108068187020686C
:100BD00000F5D87000EB0110806800F47F40000A37
:100BE0005870206800F5D87000EB0110806800F4A0
:100BF0007F00000C9870206800F5D87000EB0110A1
:100C00008068000ED870206800F5D87000E02FE0F2
:100C100000EB0110C0681871206800F5D87000EB77
:100C20000110C06800F47F40000A5871206800F588
:100C3000D87000EB0110C06800F47F00000C9871C0
:100C4000206800F5D87000EB0110C068000ED87164
:100C500031B92068C06840F020002668F06005E0E7
:100C60002068006940F020002668306100205BE7C2
:100C7000606A40F480206062012055E72DE9F05F52
:100C800004460025206846692068D0F80490206852
:100C900087682068D0F80CA02068D0F810B02068D1
:100CA000D0F8188006F00100002855D007F00100A8
:100CB000C0B101202168886007F0020018B1204609
:100CC00000F0D9FA0EE007F0040010B145F4006519
:100CD00008E007F0080010B145F4805502E0204616
:100CE00000F0C8FA07F48070C8B14FF48070216832
:100CF000886007F4007018B1204600F0BEFA0EE0DC
:100D000007F4806010B145F4005508E007F4006076
:100D100010B145F4804502E0204600F0ADFA07F43A
:100D20008030C8B14FF480302168886007F400300B
:100D300018B1204600F0A3FA0EE007F4802010B1AD
:100D400045F4004508E007F4002010B145F4803573
:100D500002E0204600F092FA06F0080038B10AF0EE
:100D6000100020B145F4007510202168C86006F01D
:100D7000040040B10AF0080028B108202168C860CA
:100D8000204600F00DFA06F0020038B12068C06875
:100D900000F0030010B1204600F004FA06F0400015
:100DA00038B10BF0100020B145F4806510202168A7
:100DB000086106F0200040B10BF0080028B10820BF
:100DC00021680861204600F023FA06F0100038B1CF
:100DD0002068006900F0030010B1204600F019FA05
:100DE00006F4003040B109F0100028B1102021684D
:100DF0004860204600F00EFA06F4803040B109F059
:100E0000080028B1082021684860204600F038FA20
:100E100006F4004088B309F0040078B306F480704B
:100E200020B108F0010008B145F0010506F400709A
:100E300020B108F0020008B145F0020506F4806018
:100E400020B108F0040008B145F0040506F4006084
:100E5000A0B108F0700088B108F07000402817D0E9
:100E600006DC10280BD020280CD0302819D10CE03B
:100E7000502810D0602814D110E01DE019E045F092
:100E800008050FE045F010050CE045F0200509E0ED
:100E900045F0400506E045F0800503E045F4807527
:100EA00000E000BF00BF2068806920F0700021686A
:100EB00088610420216848602DB1606A284360621F
:100EC0002046FFF71DFEBDE8F09F70B504460CB943
:100ED000012070BD94F8200010B9204600F0B0F851
:100EE0002068006840F001002168086000F006FDFD
:100EF00005460DE000F002FD401B0A2808D9606A93
:100F000040F400306062052084F820000120E0E712
:100F10002068406800F001000028EBD020680068DD
:100F200020F002002168086000F0E8FC05460DE0B2
:100F300000F0E4FC401B0A2808D9606A40F4003045
:100F40006062052084F820000120C2E72068406824
:100F500000F002000028EBD1207E012806D1206895
:100F6000006840F080002168086005E020680068A3
:100F700020F0800021680860607E012806D120688A
:100F8000006840F040002168086005E020680068C3
:100F900020F0400021680860A07E012806D120686A
:100FA000006840F020002168086005E020680068C3
:100FB00020F0200021680860E07E012806D120682A
:100FC000006820F010002168086005E020680068D3
:100FD00040F0100021680860207F012806D12068B9
:100FE000006840F008002168086005E0206800689B
:100FF00020F0080021680860607F012806D1206881
:10100000006840F004002168086005E0206800687E
:1010100020F0040021680860D4E902010843216936
:101020000843616908436168491E08432168C86133
:1010300000206062012084F82000002049E70000C1
:1010400010B586B00446142101A8FFF776F94E4981
:101050002068884241D14D480068401C4B490860D7
:101060000846006801280FD100BF002000904848C2
:10107000006840F00070464908600846006800F0CB
:101080000070009000BF00BF00BF002000904048EB
:101090001038006840F008003D49103908600846E3
:1010A000006800F00800009000BF00BF032001901E
:1010B0000220029000200390032004900920059054
:1010C00001A9344800F012FB00220521142000F091
:1010D000D9FC142000F0C6FC54E02F492068884257
:1010E00050D100BF002000902948006840F0806087
:1010F000274908600846006800F08060009000BF43
:1011000000BF22480068401C20490860084600686B
:1011100001280FD100BF002000901D48006840F05A
:1011200000701B4908600846006800F000700090DD
:1011300000BF00BF00BF00200090154810380068B5
:1011400040F002001249103908600846006800F0BB
:101150000200009000BF00BF6020019002200290BA
:1011600000200390032004900920059001A90B485A
:1011700000F0BCFA00220521402000F083FC402052
:1011800000F070FC06B010BD0064004018000020A4
:1011900040380240000C0240006800400004024059
:1011A0007047000010B50446124B134A0021134843
:1011B000FFF7A7FC78B91249206888420BD10E4886
:1011C0000068A0F2012028B90A4A0C490D4803F032
:1011D000C5FD00BF00BF074B074A00210A48FFF7C3
:1011E00090FC28B909492068884201D100BF00BF9E
:1011F00010BD0000A80000200C4B0020D8070020E4
:1012000000640040404B00200008002000680040BF
:1012100070477047704770B5044694F82000012865
:1012200022D1022084F820002068006820F001000C
:101230002168086000F062FB05460DE000F05EFBEF
:10124000401B0A2808D9606A40F40030606205201B
:1012500084F82000012070BD2068406800F0010083
:101260000028EBD16062F6E7606A40F4002060621B
:101270000120F0E77047704770477047704770472C
:10128000704770B50446A56D00F038FB064694F82B
:101290003500022808D08020606500BF002084F857
:1012A000340000BF012070BD2068006820F01600E7
:1012B000216808602068406920F08000216848614A
:1012C000206C08B9A06C28B12068006820F00800E4
:1012D000216808602068006820F00100216808602B
:1012E00010E000F00BFB801B05280BD92020606567
:1012F000032084F8350000BF002084F8340000BFCC
:101300000320D0E72068006800F001000028E8D141
:1013100094F85C103F208840A860012084F83500D4
:1013200000BF002084F8340000BF00BFBBE70146C7
:1013300091F83500022803D08020486501207047CD
:10134000052081F835000868006820F001000A686F
:1013500010600020F3E70000F8B50446002000907C
:101360008C4800684FF41651B0FBF1F7A56D2E685C
:1013700094F85C1008208840304098B120680068DC
:1013800000F0040070B12068006820F004002168BB
:10139000086094F85C1008208840A860606D40F0F8
:1013A0000100606594F85C1001208840304068B10D
:1013B0002068406900F0800040B194F85C10012082
:1013C0008840A860606D40F00200606594F85C1091
:1013D00004208840304068B12068006800F00200B6
:1013E00040B194F85C1004208840A860606D40F023
:1013F0000400606594F85C1010208840304078B399
:101400002068006800F0080050B394F85C101020C9
:101410008840A8602068006800F4802080B12068BF
:10142000006800F4002028B9206CC8B12046216C67
:10143000884715E0A06C98B12046A16C88470FE062
:101440002068006800F4807028B92068006820F0E7
:10145000080021680860206C10B12046216C884784
:1014600094F85C10202088403040002865D0206827
:10147000006800F0100000285FD094F85C10202075
:101480008840A86094F83500052828D120680068B5
:1014900020F01600216808602068406920F0800074
:1014A00021684861206C08B9A06C28B120680068E8
:1014B00020F008002168086094F85C103F20884004
:1014C000A860012084F8350000BF002084F83400B3
:1014D00000BF206D10B12046216D8847F8BD2068FF
:1014E000006800F4802080B12068006800F40020CB
:1014F00028B9606C10B12046616C88471DE0E06B34
:10150000D8B12046E16B884717E02068006800F4F6
:10151000807068B92068006820F0100021680860B9
:10152000012084F8350000BF002084F8340000BF9B
:10153000E06B10B12046E16B8847606D38B3606D99
:1015400000F00100F0B1052084F835002068006843
:1015500020F001002168086000BF0098401C009046
:10156000B84200D905E02068006800F001000028BA
:10157000F3D100BF012084F8350000BF002084F8BB
:10158000340000BFE06C10B12046E16C884700BF1A
:10159000A4E70000280000202DE9F04104460025C2
:1015A00000F0ACF9074614B90120BDE8F081606A8B
:1015B00000B100BF022084F8350000BF002084F88D
:1015C000340000BF2068006820F001002168086036
:1015D0000AE000F093F9C01B052805D920206065BA
:1015E000032084F83500E0E72068006800F001007F
:1015F0000028EED12068056821480540D4E90101A2
:101600000843E16808432169084361690843A16907
:101610000843E1690843216A08430543606A0428D6
:1016200003D1D4E90B010843054320680560206815
:10163000456925F00705606A0543606A04280DD1F5
:10164000A06A0543E06A48B12046FFF797F828B141
:1016500040206065012084F83500A6E720684561D8
:101660002046FFF771F8064694F85C103F2088404A
:10167000B06000206065012084F83500002094E708
:101680003F8010F02DE9F04104460D4616461F46F6
:101690004FF0000800BF94F83400012802D1022066
:1016A000BDE8F081012084F8340000BF94F83500D3
:1016B000012811D1022084F83500002060653B46E6
:1016C000324629462046FFF7AEF82068006840F011
:1016D00001002168086006E000BF002084F83400A3
:1016E00000BF4FF002084046DAE70000F8B50246B6
:1016F0000B460025002400200021D6E0012606FA32
:1017000001F51E6806EA0504AC4274D11E7906F0A4
:101710000306012E04D01E7906F00306022E13D113
:1017200090684F000326BE40B0434F00DE68BE40C5
:1017300030439060506801268E40B0431E79C6F356
:1017400000168E40304350601E7906F00306032ECB
:1017500009D0D0684F000326BE40B0434F009E68BA
:10176000BE403043D0601E7906F00306022E13D12E
:10177000CF0802F1200656F827004E07F70E0F2675
:10178000BE40B0434F07FF0E1E69BE403043CF0836
:1017900002F1200646F8270010684F000326BE40DD
:1017A000B0431E7906F003064F00BE403043106080
:1017B0005E6806F44036002E76D000BF0026009604
:1017C0003C4E366846F480463A4F3E603E463668A8
:1017D00006F48046009600BF00BF374E8F0856F8CB
:1017E00027008E07370F0F26BE40B043334EB2425C
:1017F00002D1002624E057E0314EB24201D1012649
:101800001EE0304EB24201D1022619E02E4EB24205
:1018100001D1032614E02D4EB24201D104260FE07F
:101820002B4EB24201D105260AE02A4EB24201D126
:10183000062605E0284EB24201D1072600E0082620
:101840008F073F0FBE4030431B4E8F0846F82700DE
:10185000224E3068A0435E6806F4801606B120432D
:101860001E4E3060361D3068A0435E6806F40016D8
:1018700006B12043194E361D3060184E361F3068B1
:10188000A0435E6806F4003606B12043134E361FAF
:101890003060361F3068A0435E6806F4803606B1BB
:1018A00020430E4E083E3060491C1029FFF426AF3D
:1018B000F8BD0000443802400838014000000240F2
:1018C0000004024000080240000C024000100240E8
:1018D0000014024000180240001C0240083C014075
:1018E000024613690B400BB1012000E00020704755
:1018F0000AB1816101E00B0483617047014800680F
:10190000704700001C000020034800680349097864
:1019100008440149086070471C0000202400002092
:1019200010B50D48006840F400700B490860084687
:10193000006840F4806008600846006840F48070E9
:101940000860032000F0DCF80F2000F007F800F03A
:101950005FF8002010BD0000003C02402DE9F0417E
:1019600088B004460027B84600BF002001902448F4
:10197000006840F00100224908600846006800F055
:101980000100019000BF00BF02A903A800F08EF97A
:10199000069F1FB900F0B2F9054602E000F0AEF96B
:1019A00045001848B5FBF0F0A0F101084FF0804069
:1019B0001549086040F2E7311348C160C0F804805F
:1019C000002101618160816100F0BAFD064696B98F
:1019D0000D4800F05BFE06466EB91C2000F042F890
:1019E000102C07D2002221461C2000F04BF807489B
:1019F000046000E00126304608B0BDE8F081000038
:101A00004038024040420F00AC0C00202000002073
:101A100008B500BF002000901148006840F48040E5
:101A20000F4908600846006800F48040009000BF3D
:101A300000BF00BF00200090081F006840F08050E9
:101A4000091F08600846006800F08050009000BF41
:101A500000BF00220F21901E00F014F808BD000006
:101A60004438024001460846002809DB00F01F0305
:101A700001229A4043099B0003F1E023C3F80021AF
:101A800000BF70472DE9F05F80460D4616460027DF
:101A900003F00AF9074639462A46334601F00700A3
:101AA000C0F1070ABAF1040F02D94FF0040A01E0AD
:101AB000C0F1070AD14600F1040ABAF1070F02D2B9
:101AC0004FF0000A01E0A0F1030AD4464FF0010AEA
:101AD0000AFA09FAAAF1010A0AEA020A0AFA0CFA4F
:101AE0004FF0010B0BFA0CFBABF1010B0BEA030BF4
:101AF0004AEA0B042146404603F0DEF8BDE8F09FB9
:101B000000BF00F00702064B19684FF6FF031940AB
:101B1000044B0B4343EA0221014B196000BF70479D
:101B20000CED00E00000FA0570B504460D460CB956
:101B3000012070BD5848006800F00700A84209D293
:101B400055490D700846006800F00700A84201D012
:101B50000120EEE7207800F0020002281DD1207855
:101B600000F00400042805D14C48006840F4E0501F
:101B70004A490860207800F00800082805D1474845
:101B8000006840F46040454908604448006820F01F
:101B9000F000A168084341490860207800F0010086
:101BA000A8B36068012807D13C4808380068C0F332
:101BB0004040B8B90120BCE76068022802D06068E4
:101BC000032807D1354808380068C0F3406048B999
:101BD0000120AEE7314808380068C0F3400008B97A
:101BE0000120A6E72D48006820F003006168084343
:101BF0002A490860FFF782FE064609E0FFF77EFEED
:101C0000801B41F28831884202D9032091E707E026
:101C10002248006800F00C006168B0EB810FEDD144
:101C20001D48006800F00700A84209D91A490D7044
:101C30000846006800F00700A84201D0012078E7BC
:101C4000207800F00400042807D11448006820F42C
:101C5000E050E168084311490860207800F008006E
:101C6000082808D10D48006820F46040216940EA46
:101C7000C1000A49086000F061F808490968C1F329
:101C80000311074A515CC8400649086006480068CD
:101C9000FFF764FE00204CE7003C02400838024099
:101CA0008C74000828000020200000200F22026011
:101CB0000D4A126802F0030242600B4A126802F0F9
:101CC000F0028260084A126802F4E052C260064ADA
:101CD000126802F46042D2080261044A126802F0FB
:101CE00007020A607047000008380240003C0240CA
:101CF00001480068704700002800002000B5FFF789
:101D0000F7FF04490968C1F38221034A515CC840C6
:101D100000BD0000083802409C74000800B5FFF7C1
:101D2000E7FF04490968C1F34231034A515CC840E6
:101D300000BD0000083802409C7400082DE9F047FF
:101D4000002400250026A1462548006800F00C006C
:101D500020B1042805D008283AD105E0DFF88490A6
:101D600039E0DFF8849036E01D48001F006800F07D
:101D70003F041B48001F006800F4800078B11A4837
:101D80001749091F0968C1F38811A0FB01700146BA
:101D9000224600233846FEF773FA05460EE0114846
:101DA0000F49091F0968C1F38811A0FB01700146A2
:101DB000224600233846FEF763FA05460848001F0E
:101DC0000068C0F30140401C4600B5FBF6F902E094
:101DD000DFF8109000BF00BF4846BDE8F087000064
:101DE000083802400024F400001BB700F8B5044690
:101DF0000CB90120F8BD207800F00100002874D053
:101E0000F948006800F00C0004280DD0F64800687E
:101E100000F00C00082813D1F348001F006800F4FC
:101E20008000B0F5800F0BD1EF4808380068C0F390
:101E30004040002859D06068002856D10120D9E7D9
:101E400000BF6068B0F5803F08D1E74808380068F7
:101E500040F48030E449083908601EE06068B0F55D
:101E6000A02F0DD1E0480838006840F48020DE49FA
:101E7000083908600846006840F4803008600CE0CB
:101E8000D9480838006820F48030D74908390860FC
:101E90000846006820F48020086000BF606890B1A8
:101EA000FFF72CFD054606E0FFF728FD401B6428E0
:101EB00001D903209EE7CC4808380068C0F34040B1
:101EC0000028F1D011E0FFF719FD054606E0FFF705
:101ED00015FD401B642801D903208BE7C248083850
:101EE0000068C0F340400028F1D1207800F00200E3
:101EF00002285FD1BC48006800F00C0058B1BA4815
:101F0000006800F00C0008281CD1B748001F0068CA
:101F100000F48000B0B9B44808380068C0F340004D
:101F200020B1E068012801D0012063E7AE480838FD
:101F3000006820F0F800216940EAC100AA49083988
:101F4000086037E0E06800B30120A8490860FFF7A7
:101F5000D5FC054606E0FFF7D1FC401B022801D95D
:101F6000032047E7A04808380068C0F34000002875
:101F7000F1D09D480838006820F0F800216940EA57
:101F8000C10099490839086014E0002097490860A9
:101F9000FFF7B4FC054606E0FFF7B0FC401B022843
:101FA00001D9032026E7904808380068C0F34000B4
:101FB0000028F1D1207800F0080008282CD16069B1
:101FC000A8B101208A490860FFF798FC054606E0A1
:101FD000FFF794FC401B022801D903200AE782483E
:101FE0006C300068C0F340000028F1D014E00020FD
:101FF0007F490860FFF782FC054606E0FFF77EFC9C
:10200000401B022801D90320F4E677486C300068B1
:10201000C0F340000028F1D1207800F0040004282B
:1020200070D1002770483830006800F0805090B9B7
:1020300000BF002000906C483830006840F08050AD
:102040006949383108600846006800F08050009007
:1020500000BF00BF01276748006800F48070B0B976
:102060006448006840F4807062490860FFF746FCED
:10207000054606E0FFF742FC401B022801D9032079
:10208000B8E65C48006800F480700028F2D000BF19
:10209000A068012808D154486830006840F0010069
:1020A0005149683108601DE0A06805280DD14E48EF
:1020B0006830006840F004004B4968310860084609
:1020C000006840F0010008600CE047486830006894
:1020D00020F001004449683108600846006820F09B
:1020E0000400086000BFA068A8B1FFF707FC054620
:1020F00009E0FFF703FC401B41F28831884202D916
:10210000032077E626E0384868300068C0F34000D6
:102110000028EED013E0FFF7F1FB054608E0FFF7DB
:10212000EDFB401B41F28831884201D9032061E672
:102130002D4868300068C0F340000028EFD1012F1F
:1021400007D129483830006820F0805026493831BE
:10215000086000BFA069002845D02348006800F04F
:102160000C0008285DD0A069022845D100201F4935
:102170000866FFF7C3FB054606E0FFF7BFFB401B01
:10218000022801D9032035E6174808380068C0F353
:1021900040600028F1D1D4E907010843616A40EAB0
:1021A00081110122A06AC2EB500041EA00412C20BB
:1021B000005D41EA00600C49091F086001200B49DD
:1021C0000866FFF79BFB054606E0FFF797FB401B01
:1021D000022801D903200DE6034808380068C0F33F
:1021E00040600028F1D049E0083802400000474232
:1021F000800E474200700040002021490866FFF72A
:102200007DFB054606E0FFF779FB401B022801D95C
:102210000320EFE51B480068C0F340600028F2D1BE
:102220002CE0A069012800D1E4E51648001D0668ED
:10223000A069012820D006F48001E06981421BD109
:1022400006F03F01206A814216D147F6C070304047
:10225000616AB0EB811F0FD106F440310122A06A00
:10226000C2EB5000B1EB004F06D106F070612C209C
:10227000005DB1EB006F01D00120BBE50020B9E5A6
:10228000000047420038024010B504460CB9012056
:1022900010BD606A38B96068B0F5827F00D105E092
:1022A0000021E16102E00021216161610021A16260
:1022B00094F8510028B9002084F85000204600F01E
:1022C00047F8022084F851002068006820F04000A0
:1022D00021680860A08800F48270218901F404411B
:1022E0000843A18901F400610843217C01F0020147
:1022F0000843217D01F001010843218B01F40071A5
:102300000843217F01F0380108432021095D01F0D5
:1023100080010843218D01F40051084321680860C1
:102320000421A06901EA104094F8241001F0100182
:102330000843216848602068C06920F40060216873
:10234000C86100206065012084F8510000209FE7EB
:1023500010B586B00446142101A8FDF7EEFF294907
:10236000206888424CD100BF0020009026480068B9
:1023700040F48050244908600846006800F480500A
:10238000009000BF00BF00BF002000901E4814381E
:10239000006840F002001C491439086008460068D3
:1023A00000F00200009000BF00BF00BF00200090BE
:1023B0000846006840F0010008600846006800F028
:1023C0000100009000BF00BF182001900220029081
:1023D00000200390032004900520059001A90B48DC
:1023E000FFF784F9802001900220029000200390E2
:1023F000032004900520059001A90548FFF776F910
:1024000006B010BD003001404438024000040240D4
:10241000000002407047704710B50346002200BF1D
:1024200093F83C00012801D1022010BD012083F85F
:102430003C0000BF22F0FF00CC6840EA040222F416
:1024400040708C6840EA040222F480604C6840EAE4
:10245000040222F400600C6840EA040222F4805076
:102460000C6940EA040222F400504C6940EA04027C
:1024700022F48040CC6940EA04021868426400BF3C
:10248000002083F83C0000BF00BFCEE730B5024615
:102490000B4600BF92F83C00012801D1022030BD5C
:1024A000012082F83C0000BF022082F83D00106845
:1024B00044681068816824F0700418680443106848
:1024C0004460184D1068A8421BD01068B0F1804FCE
:1024D00017D0154D1068A84213D0144D1068A842AB
:1024E0000FD0134D1068A8420BD0124D1068A842AF
:1024F00007D0114D1068A84203D0104D1068A842B3
:1025000005D121F0800158680143106881600120E5
:1025100082F83D0000BF002082F83C0000BF00BFF1
:10252000BDE700000000014000040040000800403A
:10253000000C004000040140004001400018004031
:1025400010B504460CB9012010BD94F83D0028B91F
:10255000002084F83C00204600F026F8022084F891
:102560003D00211D206801F08BFF012084F846000A
:1025700000BF84F83E0001213F2001554020015555
:102580004120015500BF00BF012084F842004320D4
:102590000155442001554520015500BF012084F814
:1025A0003D000020D0E7000038B5044632492068DD
:1025B000884218D100BF002000903048006840F0E9
:1025C00001002E4908600846006800F001000090F4
:1025D00000BF00BF002205211920FFF753FA192080
:1025E000FFF740FA47E026492068884211D100BF32
:1025F000002000902148001F006840F002001F49A1
:10260000091F08600846006800F00200009000BF43
:1026100031E01C492068884211D100BF00200090A1
:102620001648001F006840F004001449091F0860A4
:102630000846006800F00400009000BF1BE012494B
:102640002068884217D100BF002000900B48006826
:1026500040F40030094908600846006800F4003082
:10266000009000BF00BF002205211920FFF70AFAE1
:102670001920FFF7F7F938BD000001404438024047
:10268000000400400008004000440140014691F869
:102690003D00012801D001207047022081F83D0053
:1026A0000868C06840F001000B68D8601A4B0868E1
:1026B00098421BD00868B0F1804F17D0174B0868BC
:1026C000984213D0164B086898420FD0154B0868F3
:1026D00098420BD0144B0868984207D0134B0868F7
:1026E000984203D0124B086898420CD10868806861
:1026F00000F00702062A0CD00868006840F00100CC
:102700000B68186005E00868006840F001000B687D
:1027100018600020C0E700000000014000040040F5
:1027200000080040000C004000040140004001404F
:10273000001800402DE9F04104460D46002700BF77
:1027400094F83C00012802D10220BDE8F08101206C
:1027500084F83C0000BF022084F83D0020688668B1
:1027600026F0770626F47F46206886602868502881
:1027700033D00CDC202850D004DC00284BD01028AB
:1027800051D149E0302849D040284CD139E0602867
:102790002DD0702807D0B0F5805F03D0B0F5005F72
:1027A00041D10DE041E0D5E902136A68206801F0EB
:1027B000E4FE2068866846F077062068866034E08C
:1027C000D5E902136A68206801F0D7FE20688068A6
:1027D00040F480402168886027E0EA6869682068E2
:1027E00001F0BCFF5021206801F0D2FE1DE0EA6834
:1027F0006968206801F0C5FF6021206801F0C8FE0B
:1028000013E0EA686968206801F0A8FF40212068A9
:1028100001F0BEFE09E000BF00BF00BF29682068CC
:1028200001F0B6FE01E0012700BF00BF012084F8DF
:102830003D0000BF002084F83C0000BF384684E71C
:10284000704710B5044620680069C0F34000D8B155
:102850002068C068C0F34000B0B16FF0020021688A
:102860000861012020772068806900F0030018B11A
:102870002046FFF7E5FF05E0204600F051F920462D
:1028800000F005FA0020207720680069C0F380007E
:10289000D8B12068C068C0F38000B0B16FF0040008
:1028A00021680861022020772068806900F4407068
:1028B00018B12046FFF7C4FF05E0204600F030F9CC
:1028C000204600F0E4F90020207720680069C0F37A
:1028D000C000D8B12068C068C0F3C000B0B16FF0CC
:1028E000080021680861042020772068C06900F092
:1028F000030018B12046FFF7A3FF05E0204600F0D3
:102900000FF9204600F0C3F9002020772068006905
:10291000C0F30010D8B12068C068C0F30010B0B197
:102920006FF0100021680861082020772068C069D6
:1029300000F4407018B12046FFF782FF05E0204602
:1029400000F0EEF8204600F0A2F900202077206881
:10295000006900F0010058B12068C06800F0010073
:1029600030B16FF0010021680861204600F016FACE
:1029700020680069C0F3C01058B12068C068C0F377
:10298000C01030B16FF08000216808612046FFF769
:1029900041FD20680069C0F3801058B12068C0680C
:1029A000C0F3801030B16FF040002168086120460C
:1029B00000F0FDF920680069C0F3401058B12068AC
:1029C000C068C0F3401030B16FF02000216808618A
:1029D0002046FFF720FD10BD10B586B00446142137
:1029E00001A8FDF7AAFC4549206888421DD100BF17
:1029F000002000904248006840F010004049086004
:102A00000846006800F01000009000BF00BF4815A5
:102A10000190022002900020039004900120059074
:102A200001A93848FEF762FE65E037492068884210
:102A30001DD100BF002000903148006840F0040024
:102A40002F4908600846006800F00400009000BFAD
:102A500000BF88150190022002900020039004908E
:102A60000220059001A92948FEF740FE43E02849CD
:102A7000206888421ED100BF0020009020480068D6
:102A800040F008001E4908600846006800F0080091
:102A9000009000BF00BF4FF48040019002200290E0
:102AA0000020039004900220059001A91948FEF728
:102AB0001DFE20E01849206888421CD100BF00207C
:102AC00000900F48006840F020000D49086008465B
:102AD000006800F02000009000BF00BF402001907F
:102AE000022002900020039004900320059001A989
:102AF0000A48FEF7FBFD06B010BD000000000140D3
:102B0000303802400010024000040040000802403B
:102B100000080040000C0240004401400014024044
:102B200070472DE9F04104460D461646002700BFC8
:102B300094F83C00012802D10220BDE8F081012078
:102B400084F83C0000BF36B1042E1BD0082E31D0D3
:102B50000C2E5ED145E02946206801F023FD206857
:102B6000806940F00800216888612068806920F051
:102B70000400216888612068806929690843216808
:102B8000886148E02946206801F044FD206880699A
:102B900040F40060216888612068806920F48060CA
:102BA0002168886120688069296940EA01202168DC
:102BB000886130E02946206801F06AFD2068C0691C
:102BC00040F008002168C8612068C06920F0040056
:102BD0002168C8612068C069296908432168C86103
:102BE00019E02946206801F08FFD2068C06940F493
:102BF00000602168C8612068C06920F48060216895
:102C0000C8612068C069296940EA01202168C8615B
:102C100001E0012700BF00BF00BF002084F83C0096
:102C200000BF384689E710B504460CB9012010BD35
:102C300094F83D0028B9002084F83C00204600F0BC
:102C400025F8022084F83D00211D206801F018FCC1
:102C5000012084F8460000BF84F83E0001213F2097
:102C60000155402001554120015500BF00BF012002
:102C700084F8420043200155442001554520015568
:102C800000BF012084F83D000020D0E77047704766
:102C900070B504460D4615B994F83E000BE0042DBE
:102CA00002D13F20005D06E0082D02D14020005DEA
:102CB00001E04120005D012801D0012070BD1DB957
:102CC000022084F83E000EE0042D03D102213F20B3
:102CD000015508E0082D03D102214020015502E0F2
:102CE00002214120015501222946206801F034FCCF
:102CF00023492068884203D022492068884201D1B4
:102D0000012000E0002028B12068406C40F4004021
:102D1000216848641A49206888421BD02068B0F1B5
:102D2000804F17D018492068884213D0174920686F
:102D300088420FD01649206888420BD0114920687C
:102D4000884207D013492068884203D0124920687E
:102D500088420CD12068806800F00706062E0CD04F
:102D60002068006840F001002168086005E02068E4
:102D7000006840F001002168086000209EE7000024
:102D80000000014000040140000400400008004031
:102D9000000C0040004001400018004010B50446FF
:102DA0002068B0F1804F01D1FEF7AEFD10BD704735
:102DB0007047704770B504462068006800F0100046
:102DC00010287BD12068066820684668761CA06BB6
:102DD00000685049884201D120205CE0A06B006867
:102DE0004D49884201D1202055E0A06B0068494937
:102DF0006031884201D120204DE0A06B0068464937
:102E00006031884201D1202045E0A06B0068414933
:102E10001831884201D1C0143DE0A06B00683E49E2
:102E20001831884201D1C01435E0A06B00683949DF
:102E30007831884201D1C0142DE0A06B006836497A
:102E40007831884201D1C01425E0A06B0068314977
:102E50003031884202D14FF400101CE0A06B0068B2
:102E60002D493031884202D14FF4001013E0A06B9D
:102E7000006828499031884202D14FF400100AE0DE
:102E8000A06B006824499031884202D14FF40010B1
:102E900001E04FF000600546A06B0068006820F07C
:102EA0000100A16B09680860A06B00681A494831ED
:102EB000884204D91848001F056017E022E0A06B83
:102EC00000681449A831884203D9134808380560BE
:102ED0000CE0A06B00680F494831884203D90D48C7
:102EE0001038C56002E00B4810388560A08DA16BDA
:102EF00009684860A06B0068006840F00100A16BA1
:102F0000096808600548844203D10548A16AFDF7B5
:102F100085FB70BD1060024010640240E40900208F
:102F2000C84B00202DE9F84F04462068056820684A
:102F3000C668206847694FF00009CA4605F00F09C6
:102F4000B9F1000F0AD105F0200038B106F02000D9
:102F500020B1204601F0CBFCBDE8F88FB9F1000F9D
:102F60007CD007F0010018B906F49070002875D0E5
:102F700005F0010030B106F4807018B1206C40F00B
:102F80000100206405F0040030B107F0010018B121
:102F9000206C40F00200206405F0020030B107F020
:102FA000010018B1206C40F00400206405F0080016
:102FB00048B106F0200010B907F0010018B1206CEC
:102FC00040F008002064206C002846D005F0200066
:102FD00028B106F0200010B1204601F088FC2068DE
:102FE0004069C0F3801A206C00F0080010B9BAF1F3
:102FF000000F2DD0204601F0E2FB2068406900F070
:103000004000402820D100BF00BF2168143151E8A2
:10301000001F21F040002168143141E80002002A1D
:10302000F3D100BFA06B50B17548A16B0865A06BD0
:10303000FEF77DF988B1A06B016D88470DE0204651
:10304000FFF7B7FE09E009E02046FFF7B2FE04E013
:103050002046FFF7AEFE002020647DE7206B0128AC
:1030600076D105F01000002872D006F0100000287C
:10307000FAD000BF0020009020680068009020680F
:103080004068009000BF00BF2068406900F0400029
:1030900040285ED1A06B006840681FFA80F8B8F144
:1030A000000F54D0A08D404551DDA4F82E80A06BB8
:1030B000C069B0F5807F43D000BF00BF21680C31EC
:1030C00051E8001F21F4807021680C3141E80002B2
:1030D000002AF3D100BF00BF00BF2168143151E8BE
:1030E000001F21F001002168143141E80002002A8C
:1030F000F3D100BF00BF00BF2168143151E8001FA9
:1031000021F040002168143141E80002002AF3D187
:1031100000BF202084F83E000020206300BF00BFD5
:1031200021680C3151E8001F21F0100021680C319A
:1031300041E80002002AF3D100BFA06BFEF7A1F81E
:10314000A08DE28D801A81B22046FFF731FE03E7A1
:1031500040E0A08DE18D401A1FFA80F8E08DC0B3E9
:10316000B8F1000F35D000BF00BF21680C3151E825
:10317000001F21F4907021680C3141E80002002A00
:10318000F3D100BF00BF00BF2168143151E8001F18
:1031900021F001002168143141E80002002AF3D136
:1031A00000BF202084F83E000020206300BF00BF45
:1031B00021680C3151E8001F21F0100021680C310A
:1031C00041E80002002AF3D100BF41462046FFF744
:1031D000EFFDC1E605F0800030B106F0800018B1C7
:1031E000204601F017FDB7E605F0400030B106F0CB
:1031F000400018B1204601F018FBADE600BFABE679
:10320000AB47000810B504460CB9012010BDA069F9
:1032100000B100E000BF94F83D0028B9002084F818
:103220003C00204600F028F8242084F83D00206867
:10323000C06820F400502168C860204601F0D4FB2B
:103240002068006920F49040216808612068406986
:1032500020F02A00216848612068C06840F40050CE
:103260002168C86000202064202084F83D0084F894
:103270003E000020CAE7000010B586B004461421C5
:1032800001A8FDF75AF8D149206888427ED100BFD5
:1032900000200090CE48006840F01000CC49086043
:1032A0000846006800F01000009000BF00BF00BF9B
:1032B00000200090C6481438006840F00200C4495D
:1032C000143908600846006800F00200009000BF52
:1032D00000BF00BF002000900846006840F00100D9
:1032E00008600846006800F00100009000BF00BFC1
:1032F000802001900220029000200390032004907F
:103300000720059001A9B348FEF7F0F94FF40070CB
:1033100001900220029000200390032004900720D7
:10332000059001A9AC48FEF7E1F9AC48AC4908604A
:103330004FF0006048600021A9488160C1604FF4EF
:10334000806101610021416181614FF48071C1613F
:10335000002101624162FEF71FF908B1FDF77AFA18
:1033600000BF9F48A063846300BF9C4878309D499C
:1033700008604FF00060486040219A488160002159
:10338000C1604FF480610161002100E01AE04161F9
:1033900081614FF48071C161002101624162FEF7D9
:1033A000FBF808B1FDF756FA00BF8E4860638463EE
:1033B00000BF002205212520FEF764FB2520FEF733
:1033C00051FB00E18849206888427CD100BF002081
:1033D00000907F48001F006840F480207C49091F4E
:1033E00008600846006800F48020009000BF00BF1D
:1033F00000BF0020009076481438006840F00400B8
:103400007349143908600846006800F00400009011
:1034100000BF00BF4FF440600190022002900020E6
:103420000390032004900720059001A96F48FEF740
:103430005DF96F486F4908604FF0006048600021F7
:103440006C488160C1604FF480610161002141617D
:1034500081614FF48071C1614FF4403101620021FC
:103460004162FEF799F808B1FDF7F4F900BF614831
:10347000A063846300BF5E4830305F4908604FF04E
:103480000060486040215C4881600021C1604FF4C9
:10349000806101610021416181614FF48071C161EE
:1034A0004FF44031016200214162FEF775F808B126
:1034B000FDF7D0F900BF50486063846300BF00226D
:1034C0000521272000E005E0FEF7DCFA2720FEF7C3
:1034D000C9FA78E049492068884274D100BF0020C9
:1034E00000903B48006840F02000394908600846D9
:1034F000006800F02000009000BF00BF00BF002067
:10350000009033481438006840F0400030491439C6
:1035100008600846006800F04000009000BF00BF4F
:103520004FF4844001900220029000200390032079
:1035300004900820059001A93148FEF7D7F82748E4
:103540001838304908608005486000212D488160A6
:10355000C1604FF480610161002141618161C161FD
:1035600001624162FEF718F808B1FDF773F900BF78
:103570002448A063846300BF184860302249086073
:103580004FF02060486040211F4881600021C160E9
:103590004FF480610161002141618161C16101627B
:1035A0004162FDF7F9FF08B1FDF754F900BF164875
:1035B0006063846300BF002205214720FEF762FAA2
:1035C0004720FEF74FFA06B010BD00000010014082
:1035D00044380240000402400000024040640240BF
:1035E0006C0A0020CC0A002000480040000802407D
:1035F000286002402C0B00208C0B0020001401409E
:1036000000180240EC0B00204C0C002070B5044662
:103610000D4616462068C06840F010002168C8605A
:1036200032462946204601F010F970BD70477047B8
:1036300000BFFEE708B56FF07F40DFED126A9FED37
:10364000116AF1EE045A9FED0F5AF3EE094A41F266
:1036500088339FED0D4ADFED0B3A9FED0A3ADFED1F
:10366000092A9FED082ADFED071A9FED061A0022AE
:103670001146DFED040A9FED030A0090034801F0B4
:10368000F7FE08BD0000000000001643245400208F
:1036900010B54FF480412748FEF722F926490870FB
:1036A00040212648FEF71CF9234948700846007857
:1036B000E8B923480068401C2149086008460068B2
:1036C000282814D91F4890ED000AFFEE000AB4EE36
:1036D000E00AF1EE10FA0AD2002008601A4890EDD4
:1036E000000AFFEE000A20EE200A80ED000A1248D0
:1036F0004078E8B912484068401C114948600846C3
:103700004068282814D90F4890ED000AF7EE000A07
:10371000B4EEE00AF1EE10FA0ADD002048600A4833
:1037200090ED000AFFEE000A20EE200A80ED000A6C
:1037300010BD000000100240C1000020000802403F
:103740001C550020D8000020E400002010B5E248FD
:10375000808A502812D008DC112813D0122821D0DA
:1037600014281BD0182829D120E090280ED0B0F5BD
:10377000887F0FD0B0F5047F20D11BE00120D7490E
:1037800008701CE00120D549487018E00120D34999
:10379000887014E00120D149C87010E00120D049A0
:1037A00008700CE00120CE49487008E00120CC49A7
:1037B000887004E00120CA49C87000E000BF00BF63
:1037C000C548808A602812D008DC212813D022281E
:1037D00021D024281BD0282829D120E0A0280ED0D1
:1037E000B0F5907F0FD0B0F5087F20D11BE000200E
:1037F000BA4908701CE00020B849487018E0002061
:10380000B649887014E00020B449C87010E0002068
:10381000B34908700CE00020B149487008E000206E
:10382000AF49887004E00020AD49C87000E000BFD7
:1038300000BFAC48007802286FD1AB4890ED070A72
:10384000F7EE000AB4EE600AF1EE10FA0ED1002095
:1038500005E00021A24A1154A04A1154401C04283A
:10386000F7DB9FEDA20AA04880ED070A9B4840784D
:103870009A49897808449949C9780844032812DB91
:10388000994890ED040AB5EEC00AF1EE10FA0AD19B
:103890000020934948708870C870B7EE000A9248BB
:1038A00080ED040A1BE08E4840788D4989780844F1
:1038B0008B49C9780844032811DB8B4890ED040A32
:1038C000B5EEC00AF1EE10FA09D100208349487024
:1038D0008870C870B7EE000A834880ED040A8448F7
:1038E0000078012834D17E480078012816D17E481E
:1038F00090ED050AF7EE000AB4EE600AF1EE10FA58
:103900000CD100207549087001207A4908709FED9C
:10391000770A754880ED050AA9E088E06F480078CD
:10392000012814D1704890ED050AF7EE000AB4EEB4
:10393000600AF1EE10FA0AD10020694908700120EE
:103940006C4908709FED690A674880ED050A8EE0B2
:1039500067480078022856D1634890ED0D0AF7EECB
:10396000000AB4EE600AF1EE10FA0AD19FED5F0A88
:1039700080ED0D0A00205A490870584908705D49C9
:1039800008705748007801281CD1574890ED060A66
:10399000F7EE000AB4EE600AF1EE10FA12D190EDE3
:1039A0000D0AB5EEC00AF1EE10FA0BD100204B491A
:1039B000087001204F4908709FED4C0A4A4880ED7D
:1039C000060A54E045480078012850D1464890ED59
:1039D000060AF7EE000AB4EE600AF1EE10FA46D1DC
:1039E00090ED0D0AB5EEC00AF1EE10FA3FD10020BD
:1039F0003B49087001203F4908709FED3C0A3A4856
:103A000080ED060A33E03A48007838BBB7EE000A8A
:103A1000354880ED050AB7EE000A80ED060AB7EEDC
:103A2000000A80ED0D0A0020324908701FE02D4881
:103A30000078012813D1002005E00121284A115403
:103A4000264A1154401C0428F7DBB7EE000A26482A
:103A500080ED070A9FED250A80ED040A07E0214862
:103A6000007820B9B7EE000A1F4880ED070A1B480E
:103A7000027880212048FDF73BFF184842784FF438
:103A800000511E48FDF734FF144882784FF48041FE
:103A90001A48FDF72DFF1148C2784FF4004117482E
:103AA000FDF726FF0E48027840211348FDF720FF5E
:103AB0000B48427802211248FDF71AFF0848827825
:103AC00001210F48FDF714FF0548C2784FF48051DB
:103AD0000A48FDF70DFF10BDC84B0020BC000020B8
:103AE000B8000020C3000020E454002000000000C3
:103AF000C4000020C000002000200240000402405A
:103B00000014024010B50F480F49086003204860B8
:103B100000210D488160C1604FF4102101614FF414
:103B20000011416100210176012141760021817659
:103B3000C17601774177FDF7C8F908B1FCF78AFE35
:103B400010BD000000640040D807002010B50F48E9
:103B50000F4908600320486000210D488160C16062
:103B60004FF4102101614FF40011416100210176F1
:103B70000121417600218176C17601774177FDF7F9
:103B8000A4F908B1FCF766FE10BD00000068004013
:103B90000008002008B500BF0020009026480068FB
:103BA00040F48000244908600846006800F4800062
:103BB000009000BF00BF00BF0020009008460068D2
:103BC00040F4001008600846006800F400100090FF
:103BD00000BF00BF002205210C20FDF753FF0C2081
:103BE000FDF740FF002205210E20FDF74BFF0E20C0
:103BF000FDF738FF002205213920FDF743FF39206A
:103C0000FDF730FF002205213A20FDF73BFF3A2067
:103C1000FDF728FF002205214520FDF733FF452051
:103C2000FDF720FF002205214620FDF72BFF46204F
:103C3000FDF718FF08BD00003038024000B59DB008
:103C40001C22184916A8FCF75FFB002116A801F0FA
:103C500046FA154908601C2212491C310FA8FCF7CE
:103C600053FB00210FA801F03AFA104908601C220A
:103C70000C49383108A8FCF747FB002108A801F0DF
:103C80002EFA0B4908601C220649543101A8FCF7A2
:103C90003BFB002101A801F022FA064908601DB093
:103CA00000BD00001474000804000020080000207B
:103CB0000C0000201000002000B587B0142102A8DD
:103CC000FCF73BFB00BF002001909748006840F0E4
:103CD0000200954908600846006800F00200019063
:103CE00000BF00BF00BF002001900846006840F000
:103CF000400008600846006800F04000019000BFE6
:103D000000BF00BF002001900846006840F001009D
:103D100008600846006800F00100019000BF00BF85
:103D200000BF002001900846006840F008000860CD
:103D30000846006800F00800019000BF00BF00BF07
:103D4000002001900846006840F004000860084622
:103D5000006800F00400019000BF00BF00BF002019
:103D600001900846006840F48070086008460068CA
:103D700000F48070019000BF00BF00BF00200190E0
:103D80000846006840F0200008600846006800F01F
:103D90002000019000BF00BF00BF00200190084636
:103DA000006840F0800008600846006800F080006D
:103DB000019000BF00BF00BF0020019008460068CE
:103DC00040F0100008600846006800F01000019004
:103DD00000BF00BF0022C0215448FDF789FD00222A
:103DE00010215348FDF784FD002203215148FDF7BF
:103DF0007FFD00224FF480614F48FDF779FD0022DE
:103E000002214E48FDF774FD012210214B48FDF7B9
:103E10006FFD00224FF420514948FDF769FD002253
:103E20004FF470414748FDF763FD012203214548E7
:103E3000FDF75EFDC0200290012003900020049059
:103E4000059002A93948FDF751FC1020029001208D
:103E5000039000200490059002A93548FDF746FC28
:103E6000032002900120039000200490059002A9F5
:103E70003048FDF73BFC4020029000200390049066
:103E800002A93148FDF732FC4FF480600290012016
:103E9000039000200490059002A92748FDF726FC16
:103EA000022002900120039000200490059002A9B6
:103EB0002248FDF71BFC1020029001200390049083
:103EC0000220059002A91D48FDF710FC4FF4205078
:103ED00002900120039000200490059002A9184848
:103EE000FDF704FC4FF48040029000200390049002
:103EF00002A91348FDF7FAFB4FF2020002900120DD
:103F0000039000200490059002A90E48FDF7EEFBF7
:103F100001200290039004900220059002A9094814
:103F2000FDF7E4FB07B000BD30380240002002403E
:103F3000000C024000140240001C0240000002403D
:103F400000100240000402400008024010B50F4873
:103F50000F4908604FF48270486000210C4881606E
:103F6000C160022101610121416149028161382161
:103F7000C16100210162416281620A21C162FEF7D2
:103F800083F908B1FCF766FC10BD00000030014069
:103F90002808002000B587B01C216846FCF7CDF941
:103FA00015481649086000204860002113488160C8
:103FB00041F28731C160002101618161FEF7C0FAE1
:103FC00008B1FCF747FC0D48FEF72DFE08B1FCF7E1
:103FD00041FC60200090002001900290049000229B
:103FE00069460648FEF79DFD08B1FCF733FC03481F
:103FF000FEF7F2FC07B000BD004401405809002064
:1040000000B595B0002011901290139014900F906D
:1040100010901C2108A8FCF790F920216846FCF7B5
:104020008CF92C482C49086040F28F6048600021D0
:104030002948816040F2CF71C16000210161416176
:1040400080218161FEF77CFA08B1FCF703FC4FF494
:104050008050119011A92048FEF76CFB08B1FCF7C5
:10406000F9FB1D48FEF7DFFD08B1FCF7F3FB00206C
:104070000F9010900FA91848FEF708FA08B1FCF746
:10408000E9FB60200890002009900A900B900C90AA
:104090000D900E90002208A90F48FEF742FD08B1CE
:1040A000FCF7D8FB00200090019002900390049050
:1040B0004FF4005005900020079069460648FEF72F
:1040C000ABF908B1FCF7C6FB0348FEF785FC15B059
:1040D00000BD0000000001408008002000B58DB048
:1040E000002009900A900B900C90079008901C21DA
:1040F0006846FCF722F9204820490860A72048605C
:1041000000211E48816040F2CF71C1600021016131
:1041100080218161FEF714FA08B1FCF79BFB4FF494
:104120008050099009A91548FEF704FB08B1FCF777
:1041300091FB1248FEF777FD08B1FCF78BFB0020DE
:104140000790089007A90D48FEF7A0F908B1FCF701
:1041500081FB6020009000200190029004900822D2
:1041600069460648FEF7DDFC08B1FCF773FB03481F
:10417000FEF732FC0DB000BD00040040C80800206E
:1041800000B58DB0002009900A900B900C9007901C
:1041900008901C216846FCF7D0F8204820490860A8
:1041A0005320486000211E488160F921C160002130
:1041B000016180218161FEF7C3F908B1FCF74AFB78
:1041C0004FF48050099009A91548FEF7B3FA08B1D9
:1041D000FCF740FB1248FEF726FD08B1FCF73AFB5E
:1041E00000200790089007A90D48FEF74FF908B185
:1041F000FCF730FB602000900020019002900490BA
:10420000082269460648FEF78CFC08B1FCF722FB41
:104210000348FEF7E1FB0DB000BD000000080040C0
:104220001009002010B50B480B4908604FF4E1302D
:104230004860002108488160C16001610C21416132
:1042400000218161C161FEF7DDFF08B1FCF702FBCF
:1042500010BD000000100140A009002010B50A4860
:104260000A4908600A484860002108488160C16026
:1042700001610C21416100218161C161FEF7C2FF32
:1042800008B1FCF7E7FA10BD00480040E40900203F
:10429000A086010010B50B480B4908604FF4E130CF
:1042A0004860002108488160C16001610C214161C2
:1042B00000218161C161FEF7A5FF08B1FCF7CAFAD0
:1042C00010BD000000140140280A002000BFFEE7D6
:1042D00000BFFEE72DE9F04180460C4615461E461C
:1042E000069F4FF400700F49086000208860C86086
:1042F0000820086100200875200A0B4908704C70DE
:10430000280A8870CD70300A08714E71380A887199
:10431000CF7100230A4603490448FCF7B3FABDE80D
:10432000F0810000284B0020B0000020D8070020BA
:1043300000BF00F04CFD012000F0C0FEF9E700BF17
:10434000012000F0BBFEFBE700BF012000F0B6FE3D
:10435000FBE700BF012000F0B1FEFBE710B500BF96
:10436000502080F31188BFF34F8FBFF36F8F00BFD2
:1043700002F0FCFD18B14FF080500449086000BF06
:10438000002080F3118800BF10BD000004ED00E0A4
:1043900000B593B0302107A8FBF7CFFF142102A886
:1043A000FBF7CBFF00BF002001902448006840F0DD
:1043B0008050224908600846006800F08050019053
:1043C00000BF00BF00BF002001901D48006840F4FE
:1043D00080401B4908600846006800F48040019056
:1043E00000BF00BF012007900004089002200D903C
:1043F00041050E9106210F91A821109102211191E2
:104400000421129107A8FDF7F1FC08B1FCF722FA8C
:104410000F20029002200390002004904FF4A0503F
:1044200005904FF480500690052102A8FDF77CFB13
:1044300008B1FCF70FFA13B000BD0000403802408D
:10444000007000400348006840F4700001490860B3
:104450007047000088ED00E010B50348FEF7F1F961
:104460000248FEF7EEF910BD800800205809002030
:1044700010B50248FEF7E5F910BD0000AC0C0020B5
:1044800010B50268294B98420ED0B0F1804F0BD086
:10449000274B984208D0274B984205D0264B98428C
:1044A00002D0264B984203D122F070024B681A4387
:1044B0001E4B984220D0B0F1804F1DD01C4B98422B
:1044C0001AD01C4B984217D01B4B984214D01B4B50
:1044D000984211D01A4B98420ED01A4B98420BD0EA
:1044E000194B984208D0194B984205D0184B984266
:1044F00002D0184B984203D122F44072CB681A4381
:1045000022F080034C6943EA040202608B68C362B4
:104510000B688362054B984202D0084B984201D148
:104520000B6903630123436110BD000000000140DB
:104530000004004000080040000C0040000401405E
:104540000040014000440140004801400018004084
:10455000001C00400020004030B501F01F05012480
:1045600004FA05F3046A9C430462046A01F01F051F
:1045700002FA05F52C43046230BD30B50C46816863
:1045800021F47F4142EA032525432943816030BD60
:104590000A46816821F0700142F0070319438160E7
:1045A0007047000030B5056A25F001050562026A12
:1045B0004368846924F0700424F003040D682C43DC
:1045C00022F002028D682A43104DA84200D103E078
:1045D0000F4DA84206D100BF22F00802CD682A4341
:1045E00022F00402094DA84202D0094DA84207D189
:1045F00023F4807323F400734D692B438D692B439F
:10460000436084614D684563026230BD0000014033
:104610000004014030B5056A25F010050562026A04
:104620004368846924F4E04424F440740D6844EA47
:10463000052422F020028D6842EA0512124DA8429C
:1046400000D103E0114DA84207D100BF22F0800243
:10465000CD6842EA051222F040020B4DA84202D07A
:104660000A4DA84209D123F4806323F400634D6905
:1046700043EA85038D6943EA8503436084614D689D
:104680008563026230BD000000000140000401406B
:1046900030B5056A25F480750562026A4368C4690D
:1046A00024F0700424F003040D682C4322F40072FB
:1046B0008D6842EA0522124DA84200D103E0114D57
:1046C000A84207D100BF22F40062CD6842EA052269
:1046D00022F480620A4DA84202D00A4DA84209D1B4
:1046E00023F4805323F400534D6943EA05138D6985
:1046F00043EA05134360C4614D68C563026230BD7F
:10470000000001400004014030B5056A25F48055E1
:104710000562036A4468C26922F4E04222F44072EE
:104720000D6842EA052223F400538D6843EA0533FD
:10473000084DA84202D0084DA84204D124F4804478
:104740004D6944EA85144460C2614D6805640362A2
:1047500030BD0000000001400004014030B50B46B0
:104760001446026A056A25F001050562816921F097
:10477000F00141EA041122F00A021A438161026247
:1047800030BD30B50B461446056A25F010050562AC
:104790008169026A21F4704141EA043122F0A002E9
:1047A00042EA03128161026230BD70B50546AC6B0E
:1047B0000020E085E0842046FEF7FBFA70BD00BFD4
:1047C00000BF02680C3252E8002F22F49071026898
:1047D0000C3242E80013002BF3D100BF00BF00BF32
:1047E0000268143252E8002F22F0010102681432EC
:1047F00042E80013002BF3D100BF016B01290ED159
:1048000000BF00BF02680C3252E8002F22F01001F6
:1048100002680C3242E80013002BF3D100BF2021C4
:1048200080F83E1000210163704710B504462068EF
:10483000C06820F040002168C860202084F83D0056
:104840002046FEF7F4FE002010BD77B581B0044687
:10485000154694F83E00202847D1029800B115B9BA
:10486000012004B070BD00BF94F83C00012801D1C4
:104870000220F6E7012084F83C0000BF0298A06205
:10488000A58500202064222084F83E000020A16B32
:10489000086502AE32682368191D2B46A06BFCF731
:1048A000F1FE00BF002000902068006800902068A2
:1048B0004068009000BF00BF00BF002084F83C00AB
:1048C00000BF2068C06840F480702168C86020681C
:1048D000406940F00100216848612068406940F06B
:1048E0004000216848610020BBE70220B9E7F8B525
:1048F000044694F83E00222873D1A068B0F5805F8A
:104900000CD1206950B90025A66A20684068C0F320
:1049100008003080A06A801CA06215E0A56A00260D
:10492000A068B0F5805F03D0A06828B9206918B9E5
:1049300020684068287004E02068406800F07F002C
:104940002870A06A401CA062E08D401E80B2E08505
:10495000002844D12068C06820F020002168C86089
:104960002068C06820F480702168C86020684069B1
:1049700020F0010021684861202084F83E00206B6F
:10498000012826D10020206300BF00BF21680C3120
:1049900051E8001F21F0100021680C3141E80002AD
:1049A000002AF3D100BF2068006800F01000102832
:1049B0000AD100BF002000902068006800902068A5
:1049C0004068009000BF00BFA18D2046FEF7F0F9BF
:1049D00002E02046FEF72AFE0020F8BD01E000209C
:1049E000FBE70220F9E700002DE9F84F04462068B4
:1049F000006920F44050E16808432168086121699A
:104A0000A068084361690843E16908430090206891
:104A1000C06849F20C618843009908432168C86066
:104A20002068406920F44070A1690843216848610A
:104A300076492068884203D075492068884203D1AE
:104A4000FDF76CF9814602E0FDF758F98146E0690F
:104A5000B0F5004F6CD102206168A0FB0150034605
:104A60001920A9FB007001462A463846FBF708FCCE
:104A70006421B0FBF1F04FEA001A02206168A0FB4C
:104A800001510B461920A9FB00712A463846FBF755
:104A9000F7FB834602206168A0FB01500346192002
:104AA000A9FB00712A463846FBF7EAFB6421B0FBFC
:104AB000F1F000EBC00101EB0010ABEB8000322104
:104AC00001EBC0006421B0FBF1F000F0F8000AEB4C
:104AD000400A02206168A0FB015003461920A9FB8F
:104AE000007001462A463846FBF7CAFB834602207F
:104AF0006168A0FB015003461920A9FB00712A46FA
:104B00003846FBF7BDFB6421B0FBF1F000EBC001C0
:104B100001EB0010ABEB8000322101EBC0006421FF
:104B2000B0FBF1F000F007005044216888606AE0B3
:104B300004206168A0FB015003461920A9FB007006
:104B400001462A463846FBF79BFB824604206168F3
:104B5000A0FB015003461920A9FB007001462A461C
:104B60003846FBF78DFB6421B0FBF1F000EBC00190
:104B700001EB0010AAEB8000322101EB0010642150
:104B8000B0FBF1F000F0F00A04206168A0FB0170B6
:104B900003461920A9FB00513A462846FBF770FB53
:104BA0006421B0FBF1F00AEB001A04206168A0FB5D
:104BB00001510B461920A9FB00712A463846FBF724
:104BC0005FFB834604206168A0FB01500346192067
:104BD000A9FB007001462A463846FBF751FB6421C9
:104BE000B0FBF1F000EBC00101EB0010ABEB80007B
:104BF000322101EB00106421B0FBF1F000F00F0056
:104C0000504421688860BDE8F88F00000010014022
:104C100000140140014691F83D00212828D1886800
:104C2000B0F5805F0BD1086948B90A6A1088C0F3F3
:104C300008000B685860086A801C086205E00B6A6F
:104C4000581C086218780B685860C88C401E80B2E7
:104C5000C88458B90868C06820F080000B68D86024
:104C60000868C06840F040000B68D86000207047BA
:104C70000220FCE710B50248FEF754F910BD000011
:104C8000A009002010B50248FEF794F810BD0000FE
:104C9000E409002010B50248FEF78CF810BD0000B2
:104CA000280A002000BFFEE702480068C0F3022087
:104CB000704700000CED00E010B5002804DB0A0787
:104CC000130E054A135406E00A07140E034A00F0B7
:104CD0000F031B1FD45410BD00E400E018ED00E0EA
:104CE0002DED020B019820F0004001909DED000B8E
:104CF00002B0704702E008C8121F08C1002AFAD1AA
:104D000070477047002001E001C1121F002AFBD14B
:104D10007047000010B50C48FBF70EFC0B48FBF782
:104D200043FC02210848FBF798FD02210748FBF7E6
:104D300094FD642206490748FEF768FC08210648EE
:104D4000FDF7A6FF10BD0000D807002000080020D6
:104D5000644B0020E40900201009002010B50388EE
:104D6000438143888380436983615378147843EA9D
:104D700004230380D378947843EA04231BB243804E
:104D80005379147943EA04231BB203849379038192
:104D9000038844891B1BB3F5805F03DD03695B1E39
:104DA000036108E0038844891B1B13F5805F02DA66
:104DB00003695B1C03610488036904EB4333848942
:104DC0001B1B4361D0E905431B1BC36110BD10B51C
:104DD000FEF75EFC00F04CF800F0E0F801F086F918
:104DE000FEF7B4FC10BDD0ED000AF4EEC00AF1EEFF
:104DF00010FA01DD80ED000AD0ED000AB1EE401A94
:104E0000F4EEC10AF1EE10FA03D2F1EE400AC0ED61
:104E1000000A7047FCF784FDFFF7BAFAFEF74CFF73
:104E2000FEF7B8FEFEF76EFEFEF790FEFFF78EF877
:104E3000FFF7F8F9FFF712FAFFF72CFAFFF7A0F9DE
:104E4000FFF7A8F8FFF74AF9FFF7DAF8FFF762FF74
:104E500001F078F9FEF7F2FE00F03CF900BFFEE742
:104E600001460020842901D0CA1C1044704700006C
:104E700010B54048807A022803D100203E490870CE
:104E80001FE03C48807A032803D101203A4908708A
:104E900017E03848807A012813D10220364908707B
:104EA000364890ED090AB5EEC00AF1EE10FA08D1C5
:104EB000FCF724FD32490860B7EE000A2F4880ED68
:104EC000090A2D480078D8B92A48C07A022803D1A7
:104ED00000202C4908700EE02648C07A032803D130
:104EE00001202849087006E02248C07A012802D132
:104EF0000220244908709FED240A204880ED090A09
:104F00001D480078012804D19FED1F0A1B4880ED41
:104F1000090A1948007802282AD1FCF7EFFC184941
:104F20000968401A194988420BD3FCF7E7FC144979
:104F30000968401A1649884203D8012011490870AF
:104F400016E0FCF7DBFC0E490968401A114988425B
:104F50000BD3FCF7D3FC0A490968401A0E49884272
:104F600003D802200749087002E0002005490870B4
:104F700010BD0000C84B0020C3000020E4540020F6
:104F8000C8000020C40000200000000080A9030029
:104F9000E0930400407E0500A068060008B53C4888
:104FA0000078022802D03A48007870BB394800786F
:104FB000012818D138480078012809D134480078F0
:104FC000022805D19FED350A354880ED000A3FE003
:104FD000344890ED000ADFED340A20EE200A304814
:104FE00080ED000A34E02B48007802281ED12A48C0
:104FF000007801280AD126480078022806D19FEDC2
:10500000270A274880ED000A22E015E0254890EDA8
:10501000000ADFED250A20EE200A2448D0ED000A20
:1050200020EE200A1E4880ED000A11E09FED1B0AC9
:105030001B4880ED000A0BE015480078012807D1D5
:105040000020144908709FED150A154880ED000AEC
:105050001748B0F9020000EE900AF8EEE00AB0EE50
:10506000600A0F48D0ED000A0121124800F066F8EE
:10507000002000900F4890ED1F0ABDEEC00A10EE10
:10508000100A01B200231A460B48FFF723F908BDA6
:10509000C3000020C4000020C00000200000000069
:1050A000D8000020E400002000007A45E80000203D
:1050B000404B002024540020D807002070B504463F
:1050C00025460DB1294600E00121084601F0C6F948
:1050D000002070BD10B501F03DFA002010BD7FB575
:1050E00004460D46606998B1A06988B1B4F908001A
:1050F000FFF7B6FE0646D4E90510CDE9006102903F
:105100002B462269D4E9001001F0BCFE039013E0A5
:10511000B4F90800FFF7A4FE064603A8CDE9006035
:10512000238A9AB22B46D4E9001001F079FE0128B7
:1051300002D0002004B070BD0398FBE770B52DEDE0
:105140000A8B04460D46F0EE408AB0EE609A002DC0
:1051500078D1C4ED0C8A84ED099A39EE680A84EDA1
:105160000F0AD4F88800FBF7F3F841EC1A0B94ED22
:105170000F0A10EE101A0846FBF7F7F841EC1C0B6B
:10518000B0EE4C0AF0EE6C0AFFF7AAFDB0EE40BAA2
:10519000F0EE60BA53EC1A2B51EC1B0BFBF7F8F84E
:1051A00006D2D4F8880018B19FEDAE0A84ED1E0A2D
:1051B00094ED230A10EE101A0846FBF7D6F841ECDE
:1051C0001A0B94ED0F0A10EE101A0846FBF7CDF8F3
:1051D00041EC1C0BB0EE4C0AF0EE6C0AFFF780FDC0
:1051E000B0EE40BAF0EE60BA53EC1A2B51EC1B0B48
:1051F000FBF7CEF868D894ED000AD4ED0F0A20EE44
:10520000200A84ED1A0A94ED0F0A10EE101A0846CF
:10521000FBF7ABF841EC1B0BB0EE4B0AF0EE6B0A60
:10522000FFF75EFDB0EE40AAF0EE60AA9FED8E0B98
:1052300053EC102B51EC1A0BFBF7AAF803D29FED9D
:10524000898A02E049E0B7EE008A94ED010AD4EDC4
:105250000F0A60EE200A94ED1B0A00EE880A84ED26
:105260001B0AD4ED200AB0EE600A04F16C00FFF7CF
:10527000BAFD94ED0F0AD4ED0E0A30EE600AD4EDBB
:10528000020A20EE200A84ED1D0A94ED1A0AD4EDDC
:105290001B0A30EE200AD4ED1D0A30EE200A84ED00
:1052A0001E0AD4ED210AF8EE600AB0EE600A04F19D
:1052B0007800FFF798FD94ED0F0A84ED0E0A94ED47
:1052C0001E0ABDEC0A8B70BD94ED0F0A84ED0E0A28
:1052D0009FED640A84ED1E0AC1E0012DFCD1C4EDEE
:1052E000158A84ED129A39EE680A84ED180AD4F80A
:1052F0009800FBF72DF841EC1A0B94ED180A10EE0C
:10530000101A0846FBF731F841EC1C0BB0EE4C0AC2
:10531000F0EE6C0AFFF7E4FCB0EE40BAF0EE60BAD3
:1053200053EC1A2B51EC1B0BFBF732F806D2D4F8D6
:10533000980018B19FED4B0A84ED1F0A94ED270ADF
:1053400010EE101A0846FBF710F841EC1A0B94ED1A
:10535000180A10EE101A0846FBF707F841EC1C0B70
:10536000B0EE4C0AF0EE6C0AFFF7BAFCB0EE40BAB1
:10537000F0EE60BA53EC1A2B51EC1B0BFBF708F85C
:1053800065D894ED040AD4ED180A20EE200A84EDC5
:105390001A0A94ED180A10EE101A0846FAF7E5FFFB
:1053A00041EC1B0BB0EE4B0AF0EE6B0AFFF798FCDA
:1053B000B0EE40AAF0EE60AA9FED2B0B53EC102B41
:1053C00051EC1A0BFAF7E4FF02D29FED268A01E0B6
:1053D000B7EE008A94ED050AD4ED180A60EE200AB3
:1053E00094ED1C0A00EE880A84ED1C0AD4ED240A10
:1053F000B0EE600A04F17000FFF7F5FC94ED180AB6
:10540000D4ED170A30EE600AD4ED060A20EE200A29
:1054100084ED1D0A94ED1A0AD4ED1C0A30EE200A20
:10542000D4ED1D0A30EE200A84ED1F0AD4ED250AC2
:10543000F8EE600AB0EE600A04F17C00FFF7D3FCDE
:1054400094ED180A84ED170A94ED1F0A39E794EDDC
:10545000180A84ED170A9FED030A84ED1F0A00BFA6
:105460002FE70000000000000000000000408F4017
:105470002DE9F0412DED0E8B82B004460D46164607
:10548000B0EE408AF0EE608AB0EE419AF0EE619A9A
:10549000B0EE42AAF0EE62AAB0EE43BAF0EE63BA02
:1054A0001F46B0EE44CAF0EE64CAB0EE45DAF0EE44
:1054B00065DAB0EE46EAF0EE66EADDF858801748A5
:1054C00044F8A00F16486060CDF8008054F8A0C9D9
:1054D000F0EE6E6AB0EE4E6AF0EE6D5AB0EE4D5AD6
:1054E000F0EE6C4A3B46B0EE4C4AF0EE6B3AB0EE52
:1054F0004B3AF0EE6A2AB0EE4A2AF0EE691AB0EEA4
:10550000491A32462946F0EE680AB0EE480A2046AB
:10551000E04702B0BDEC0E8BBDE8F08125550008D8
:105520003D51000810B5029C1C3000ED040AC0ED8E
:10553000190A8166C26680ED1C1AC0ED171A00EDCB
:10554000072A40ED062A00ED053AC0ED003A80ED4D
:105550001D4A8367C467C0ED204A80ED185A40EDAC
:10556000035A00ED026A40ED016A1C3810BD0000CC
:105570002DE9F04105460E461C4807681C480068A6
:10558000001D00F0E3FD50B91948006890F82C1098
:105590000120884017490968814316480160681C4A
:1055A00038B936B112480168091D134800F024FECD
:1055B0001AE07C190E4800684460BC4207D20C48CF
:1055C0000168091D0D48006800F0FCFD0CE008486A
:1055D0000168091D0A48006800F0F4FD09480068E8
:1055E000844201D207480460BDE8F08140000020F9
:1055F0002C00002044000020100E00203400002069
:10560000300000205C00002010B5044600F000FED1
:1056100023480068401C224908602248006840B9BD
:10562000204804600846006801280DD100F0F4F914
:105630000AE01D48006838B91A480068C06AE16A83
:10564000884201D81748046018480068401C174970
:10565000086094F82C100120884015490968084317
:1056600013490860E16A01EB8101124A02EB8100F3
:10567000211D00F0C1FD00F0F5FD0B48006868B188
:1056800008480068C06AE16A884207D24FF080503B
:1056900009490860BFF34F8FBFF36F8F10BD000043
:1056A0003C0000202C000020480000205800002072
:1056B00044000020340D002004ED00E008B500F0A7
:1056C000A7FD12480068E8B9114800F06BFD1148C9
:1056D00000F068FD0E48104908600E480F49086048
:1056E00000200F4B0F4A0C2100900A2001F090F887
:1056F000064908600846006820B10BA1034800680D
:1057000000F070FE00F0AEFD08BD0000700000204B
:10571000240E0020380E0020680000206C000020BD
:105720004C0E0020940E0020546D725100000000B9
:1057300010B516E000F06CFD0C48C068C468201D70
:1057400000F004FD0A480068401E09490860094845
:105750000068401E0749086000F084FD204600F004
:105760005FF8044800680028E4D110BDFC0D00205B
:105770003C0000203800002070B504460D46206C27
:1057800070B1216CE0680144E160D4E90210884204
:1057900001D32168E1602846226CE168FAF7B4FD84
:1057A00070BD2DE9F04104460F4615464FF0000844
:1057B000A66B206C48B9206800282CD1A06801F0A5
:1057C00079FC80460020A06025E07DB93946226C36
:1057D0006068FAF799FD216C606808446060D4E95C
:1057E0000101884217D32068606014E03946226CBA
:1057F000E068FAF789FD216CE068411AE1602168F0
:10580000E068884203D2216CA068411AE160022D51
:1058100001D106B1761E701CA0634046BDE8F08140
:1058200010B5044694F8510030B9206B00F038FDF3
:10583000204600F035FD1AE094F85100012803D10C
:10584000204600F02DFD12E094F85100022801D10D
:10585000012000E0002050B900BF502080F31188E3
:10586000BFF34F8FBFF36F8F00BF00BFFEE710BDC8
:105870000146084A126812680AB9012200E00022B3
:105880000A600A6822B9034A1268D268106800E008
:10589000002070476800002030B54FF4705317485F
:1058A00000F007042CB1C01D20F00700134C041BAE
:1058B0001B1B0246124C22600024114D6C60D01854
:1058C000083820F007000F4C206000240D4D2D6893
:1058D0006C600C4D2D682C601146441A4C60094CCC
:1058E00024680C60084D4C682C60084D4C682C6096
:1058F0004FF00044064D2C6030BD00000C0F00201E
:105900007C000020840000208C0000208800002003
:105910009800002000BFFFF70BFF06480068012831
:10592000F9D94FF0805004490860BFF34F8FBFF39F
:105930006F8FF0E7340D002004ED00E02DE9F04119
:1059400006460D4617469846069C0DB9246000E0B1
:105950002760E66325640121204600F0C9FFBDE809
:10596000F0812DE9FF5F81460E469246DDE90E7B10
:10597000109CAAF10100216B01EB800828F00708B8
:1059800008F0070008B9012000E0002050B900BF6E
:10599000502080F31188BFF34F8FBFF36F8F00BF8C
:1059A00000BFFEE786B1002507E0715D04F1340019
:1059B0004155705D00B902E06D1C102DF5D300BF9C
:1059C00000214320015502E0002084F83400072F15
:1059D00000D30627E76267640020A064201D00F062
:1059E000EEFB04F1180000F0EAFB2461C7F10700A8
:1059F000A06164620020E06484F85000494640469B
:105A0000039A00F05DFB2060BBF1000F01D0CBF8E2
:105A10000040BDE8FF9F000010B5002407E004EB44
:105A200084010F4A02EB810000F0BCFB641C072CD0
:105A3000F5D30C4800F0B6FB0B4800F0B3FB0B4865
:105A400000F0B0FB0A4800F0ADFB0A4800F0AAFBEA
:105A500004480949086004480849086010BD00006E
:105A6000340D0020C00D0020D40D0020E80D0020D2
:105A7000FC0D0020100E002030000020340000201B
:105A800010B50146164800E0006803688B42FBD35E
:105A90000246436813448B4204D143684C68234454
:105AA000436001460A464B6813440468A34211D17F
:105AB0000C4C03682468A34208D04B6804686468EF
:105AC00023444B6003681B680B6005E0054B1B68B3
:105AD0000B6001E003680B60884200D0016010BDDC
